const walletContractAddress = '0x223fe2adcc8f28d8a46f72f7f355117d2727554d';

export const data = {
  walletContractAddress,
  userKey:
    'xpub661MyMwAqRbcFigezGWEYSbCPVuaUmvnp1u7iEpH9YsKU6uYQtPANvudjgAo82QRHXsUieMqKeB1xEj89VUKU1ugtmyAZ3xzNEbHPexxgKK',
  backupKey:
    'xpub661MyMwAqRbcGbCirzmQsUJT2eidt9tFLw2m77w6FiKco6TKu49CP3GkHF88xGCpvqkP93SYMAarfyWAn8UWevQtNT6pDo8xH7xmf6GqK6e',
  unsignedSweepPrebuildTx: {
    tx: 'f9012b808504a817c8008307a12094223fe2adcc8f28d8a46f72f7f355117d2727554d80b9010439125215000000000000000000000000e7d07af8e3e7472ea8391a3372ab98d04ac4df200000000000000000000000000000000000000000000000000de0b6b3a764000000000000000000000000000000000000000000000000000000000000000000c0000000000000000000000000000000000000000000000000000000006851a693000000000000000000000000000000000000000000000000000000000000000100000000000000000000000000000000000000000000000000000000000000e000000000000000000000000000000000000000000000000000000000000000000000000000000000000000000000000000000000000000000000000000000000808080',
    userKey:
      'xpub661MyMwAqRbcFigezGWEYSbCPVuaUmvnp1u7iEpH9YsKU6uYQtPANvudjgAo82QRHXsUieMqKeB1xEj89VUKU1ugtmyAZ3xzNEbHPexxgKK',
    backupKey:
      'xpub661MyMwAqRbcGbCirzmQsUJT2eidt9tFLw2m77w6FiKco6TKu49CP3GkHF88xGCpvqkP93SYMAarfyWAn8UWevQtNT6pDo8xH7xmf6GqK6e',
    coin: 'hteth',
    gasPrice: 20000000000,
    gasLimit: 500000,
    recipients: [
      {
        address: '0xe7d07af8e3e7472ea8391a3372ab98d04ac4df20',
        amount: '1000000000000000000',
      },
    ],
    walletContractAddress,
    amount: '1000000000000000000',
    backupKeyNonce: 0,
    recipient: {
      address: '0xe7d07af8e3e7472ea8391a3372ab98d04ac4df20',
      amount: '1000000000000000000',
    },
    expireTime: 1750181523,
    contractSequenceId: '1',
    nextContractSequenceId: '1',
  },
  txHexFullSigned:
    'xpub661MyMwAqRbcGLBsaNVtc8bhB7dN8fzf3JTEKhviDUMDz11HkcHNXRSV6tk2jsqPhXnqLJPUHy8VMSjTr4hPFimRWdFk3eaLEM8VBUbZdQE',
  recoveryDestinationAddress: '0x927324f364a6fd1bf4648310a445b58063f5bb64',
};

export const awmData = {
  userPub:
    'xpub661MyMwAqRbcGvbtjkhDJ5uiFWb6eK9nFQmLLgW1jDwJzJ2vQPyp2uKLmUBgGZKiA9HDUFYfuDoyP1dF3tj3Ucod25tmiEG2k26UX97S3Wz',
  backupPub:
    'xpub661MyMwAqRbcF4KcM9ZR5gXg5M3z1gKerho5XqmQLBG1Yc72U9dvULLrcaX92RAjbkRqJvzYAmmj5Hcnts1Tdvhy9csZuiuMowuxvNHEgrn',
  walletContractAddress: '0x74ede0b3a0d6a3688b0c85d96e7297dae5d4a951',
  userPrv:
    'xprv9s21ZrQH143K4SXRdjACvwxyhUkcErRvtBqjYJ6QAtQL7VhmrrfZV6zrvBkFHG698ns5qicM1FS9jUwz1UqxQsungfaoMowPDw9HooBNZgw',
  backupPrv:
    'xprv9s21ZrQH143K2aF9F82QiYawXKDVcDboVUsUjTMnmqj2fomsvcKfvY2NmHXgSdqPZrG8vwPDJSqBSt8Bv3sjzc9WbGdBrmWr8vfgYHDqSFH',
  txHexResult:
    '02f901d5824268808502540be4008504a817c80083030d409474ede0b3a0d6a3688b0c85d96e7297dae5d4a95180b9016439125215000000000000000000000000927324f364a6fd1bf4648310a445b58063f5bb64000000000000000000000000000000000000000000000000053444835ec5800000000000000000000000000000000000000000000000000000000000000000c0000000000000000000000000000000000000000000000000000000006867cba3000000000000000000000000000000000000000000000000000000000000000100000000000000000000000000000000000000000000000000000000000000e00000000000000000000000000000000000000000000000000000000000000000000000000000000000000000000000000000000000000000000000000000004110b2f41b55a981d21efdfe04cff1426fd45d0061bda22f1ff01d589a54baf1b3034cfdf164410a28b0f768fe452cc1568dcc18601891fc08b3b854c7f0ddb4791b00000000000000000000000000000000000000000000000000000000000000c001a002f5ff1cc3b49dedf2cc0f8f3c811175eb2fb9d4aa4ea1422342c08604459d98a0368b6909b10c80da2b3b3ef04670c02d02f79fb63e287ba6e7e6cb4b32809f57',
};
