const walletContractAddress = '0x223fe2adcc8f28d8a46f72f7f355117d2727554d';

export const data = {
  walletContractAddress,
  userKey:
    'xpub661MyMwAqRbcFigezGWEYSbCPVuaUmvnp1u7iEpH9YsKU6uYQtPANvudjgAo82QRHXsUieMqKeB1xEj89VUKU1ugtmyAZ3xzNEbHPexxgKK',
  backupKey:
    'xpub661MyMwAqRbcGbCirzmQsUJT2eidt9tFLw2m77w6FiKco6TKu49CP3GkHF88xGCpvqkP93SYMAarfyWAn8UWevQtNT6pDo8xH7xmf6GqK6e',
  unsignedSweepPrebuildTx: {
    tx: 'f9012b808504a817c8008307a12094223fe2adcc8f28d8a46f72f7f355117d2727554d80b9010439125215000000000000000000000000e7d07af8e3e7472ea8391a3372ab98d04ac4df200000000000000000000000000000000000000000000000000de0b6b3a764000000000000000000000000000000000000000000000000000000000000000000c0000000000000000000000000000000000000000000000000000000006851a693000000000000000000000000000000000000000000000000000000000000000100000000000000000000000000000000000000000000000000000000000000e000000000000000000000000000000000000000000000000000000000000000000000000000000000000000000000000000000000000000000000000000000000808080',
    userKey:
      'xpub661MyMwAqRbcFigezGWEYSbCPVuaUmvnp1u7iEpH9YsKU6uYQtPANvudjgAo82QRHXsUieMqKeB1xEj89VUKU1ugtmyAZ3xzNEbHPexxgKK',
    backupKey:
      'xpub661MyMwAqRbcGbCirzmQsUJT2eidt9tFLw2m77w6FiKco6TKu49CP3GkHF88xGCpvqkP93SYMAarfyWAn8UWevQtNT6pDo8xH7xmf6GqK6e',
    coin: 'hteth',
    gasPrice: 20000000000,
    gasLimit: 500000,
    recipients: [
      {
        address: '0xe7d07af8e3e7472ea8391a3372ab98d04ac4df20',
        amount: '1000000000000000000',
      },
    ],
    walletContractAddress,
    amount: '1000000000000000000',
    backupKeyNonce: 0,
    recipient: {
      address: '0xe7d07af8e3e7472ea8391a3372ab98d04ac4df20',
      amount: '1000000000000000000',
    },
    expireTime: 1750181523,
    contractSequenceId: '1',
    nextContractSequenceId: '1',
  },
  txHexFullSigned:
    'xpub661MyMwAqRbcGLBsaNVtc8bhB7dN8fzf3JTEKhviDUMDz11HkcHNXRSV6tk2jsqPhXnqLJPUHy8VMSjTr4hPFimRWdFk3eaLEM8VBUbZdQE',
  recoveryDestinationAddress: '0x927324f364a6fd1bf4648310a445b58063f5bb64',
};
