{
    "tx": "02f90135824268808502540be4008504a817c80083030d409474ede0b3a0d6a3688b0c85d96e7297dae5d4a95180b9010439125215000000000000000000000000927324f364a6fd1bf4648310a445b58063f5bb64000000000000000000000000000000000000000000000000053444835ec5800000000000000000000000000000000000000000000000000000000000000000c0000000000000000000000000000000000000000000000000000000006867cba3000000000000000000000000000000000000000000000000000000000000000100000000000000000000000000000000000000000000000000000000000000e000000000000000000000000000000000000000000000000000000000000000000000000000000000000000000000000000000000000000000000000000000000c0808080",
    "userKey": "xpub661MyMwAqRbcGvbtjkhDJ5uiFWb6eK9nFQmLLgW1jDwJzJ2vQPyp2uKLmUBgGZKiA9HDUFYfuDoyP1dF3tj3Ucod25tmiEG2k26UX97S3Wz",
    "backupKey": "xpub661MyMwAqRbcF4KcM9ZR5gXg5M3z1gKerho5XqmQLBG1Yc72U9dvULLrcaX92RAjbkRqJvzYAmmj5Hcnts1Tdvhy9csZuiuMowuxvNHEgrn",
    "coin": "hteth",
    "gasPrice": "20000000000",
    "gasLimit": "200000",
    "recipients": [
        {
            "address": "0x927324f364a6fd1bf4648310a445b58063f5bb64",
            "amount": "375000000000000000"
        }
    ],
    "walletContractAddress": "0x74ede0b3a0d6a3688b0c85d96e7297dae5d4a951",
    "amount": "375000000000000000",
    "backupKeyNonce": 0,
    "eip1559": {
        "maxFeePerGas": 20000000000,
        "maxPriorityFeePerGas": 10000000000
    },
    "replayProtectionOptions": {
        "chain": 17000,
        "hardfork": "london"
    },
    "recipient": {
        "address": "0x927324f364a6fd1bf4648310a445b58063f5bb64",
        "amount": "375000000000000000"
    },
    "expireTime": 1751632803,
    "contractSequenceId": 1,
    "nextContractSequenceId": 1
}
